:020000040800F2
:100000005804002001010008DB0D0008DF0C000887
:10001000D90D00086D010008BB0F000800000000AA
:10002000000000000000000000000000FF0D0008BC
:100030006F01000800000000FD0D0008010E00081F
:100040001B0100081B0100081B0100081B01000820
:100050001B0100081B0100081B0100081B01000810
:100060001B0100081B0100081B0100081B01000800
:100070001B0100081B0100081B0100081B010008F0
:100080001B0100081B0100081B0100081B010008E0
:100090001B0100081B0100081B0100081B010008D0
:1000A0001B0100081B0100081B0100081B010008C0
:1000B0009D0E00081B0100081B0100081B01000821
:1000C0001B0100081B0100081B0100081B010008A0
:1000D0001B0100081B0100081B0100081B01000890
:1000E0001B0100081B0100081B010008DFF80CD0F1
:1000F00000F02AF800480047C1100008580400200A
:100100000648804706480047FEE7FEE7FEE7FEE7B1
:10011000FEE7FEE7FEE7FEE7FEE7FEE7550E000816
:10012000ED000008D2B201E000F8012B491EFBD21D
:1001300070470022F6E710B513460A4604461946F2
:10014000FFF7F0FF204610BD064C074D06E0E068C3
:1001500040F0010394E8070098471034AC42F6D30E
:10016000FFF7C8FF6412000884120008FEE770471A
:1001700070B5044600F0F6F80546601C02D004484D
:100180000078044400F0EEF8401BA042FAD370BDA2
:10019000080000202DE9F84FDFF890A100220AF1B5
:1001A000040B144601274FF00F090BF1040E00BF9A
:1001B0000B6807FA04F52B40AB4274D1DFF870C12D
:1001C0004E68A6EB0C0866452BD00DDC032E34D010
:1001D00005DC36B3012E19D0022E2FD11BE0112ED3
:1001E00016D0122E2AD119E0B8F5881F19D006DCD6
:1001F000B8F5803F15D0B8F5801F1FD111E0B8F5D4
:10020000001F0ED0B8F5041F18D10AE0CA6815E027
:10021000CA68121D12E0CA6808320FE0CA680C32C0
:100220000CE08A682AB1012A4FF0080203D0456128
:1002300004E0042202E0056100E00022FF2B01D867
:10024000064601E000F104064FEA840501D9A5F154
:100250002005D6F800C009FA05F82CEA080C02FAC5
:1002600005F54CEA050CC6F800C04D68ED0057D501
:10027000304DAE6946F00106AE61AD6924F003066B
:1002800005F0010500952C4D06EB050CDCF8085037
:10029000A6074FEA167809FA08F6B543274EB0428A
:1002A00002D1002610E03BE0254EB04201D10126EC
:1002B0000AE0244EB04201D1022605E0224EB042AF
:1002C00001D1032600E0042606FA08F62E43CCF8F6
:1002D00008604D68DAF80060ED03554601D51E430D
:1002E00000E09E432E604D68DBF80060AD035D4684
:1002F00001D51E4300E09E432E604D68DEF800608D
:10030000ED02754601D51E4300E09E432E604D6808
:10031000AD020E4D2E6801D51E4300E09E432E60B7
:10032000641C102CFFF444AFBDE8F88F00040140BA
:1003300000001110001002400000014000080140C0
:10034000000C014000100140001401400C04014069
:10035000C2684A40C26070470AB10161704709042F
:10036000FBE700000148806870470000080000209B
:1003700002488168027811448160704708000020BB
:10038000074810B5016841F010010160032000F03A
:1003900073F8002000F006F800F024F8002010BDEB
:1003A0000020024070B50D4D04464FF47A71287854
:1003B000B1FBF0F00A490968B1FBF0F000F0DCFA9B
:1003C00048B9102C07D200222146501E00F034F804
:1003D00000206C6070BD012070BD0000080000208E
:1003E000140000200C4808B5816941F001018161C9
:1003F000816901F001010091C16941F08051C16141
:10040000C06900F0805000900448416821F0E0612C
:1004100041F00071416008BD001002400000014041
:1004200000F01F02012191404009800000F1E0200E
:10043000C0F8001170470000F0B40E4B1B680C466A
:10044000C3F30223C3F10705042D00D90425191DA8
:10045000072901D2002300E0DB1E012606FA05F180
:10046000491E214099409E40761E16403143F0BC03
:1004700000F0B4BC0CED00E0064900F0070208688B
:100480004FF6FF03184040EA0220034A1043086079
:10049000704700000CED00E00000FA052DE9F04780
:1004A000DFF8548105460E46D8F8000000F007003A
:1004B000B0420CD2D8F8001021F007013143C8F83F
:1004C0000010D8F8000000F00700B0426FD1286893
:1004D0004A4C810712D5400703D5606840F4E060BC
:1004E00060602878000703D5606840F46050606061
:1004F0006068A96820F0F000084360602878C007B1
:1005000044D06868012816D02168022816D08907CF
:1005100000294CDA616821F0030101436160FFF7B3
:1005200021FF6968074641F2883001290ED002296F
:10053000814618D026E021688903E9E78901E7E7C9
:10054000FFF710FFC11B494501D918E081466068DB
:10055000C0F381000128F3D118E000BFFFF702FFCC
:10056000C11B49450BD86068C0F381000228F5D152
:100570000CE000BFFFF7F6FEC11B494502D903207E
:10058000BDE8F087606810F00C0FF3D1D8F80010C8
:10059000404601F00701B1420BD9016821F0070183
:1005A00031430160006800F00700B04201D0012033
:1005B000E6E72878400705D56068E96820F4E06040
:1005C000084360602878000706D56068296920F430
:1005D000605040EAC100606000F016F86168084AA7
:1005E000C1F30311515CC840064908600020FFF7C1
:1005F000D9FE0020C4E700000020024000100240A5
:10060000541200081400002012A185B00FC98DE813
:100610000F0014A0144A006804905168134801F0B8
:100620000C03042B10D0082B0ED1C1F38343C90354
:100630001DF803000AD5516804AAC1F34041515C7A
:100640000A4A5043B0FBF1F005B0704708494843EF
:10065000FAE7000002030405060708090A0B0C0D5F
:100660000E0F1010010200000010024000127A006C
:1006700000093D002DE9F84F04460078B94DC00748
:1006800048D06868C0F38100012807D06868C0F3CB
:100690008100022809D16868C00306D52868800354
:1006A00038D5606800286FD034E06068B0F5803FCE
:1006B0000BD010B1B0F5A02F11D0286820F48030F5
:1006C0002860286820F4802002E0286840F4803008
:1006D0002860606888B1FFF745FE064609E0286893
:1006E00040F480202860F0E7FFF73CFE801B642880
:1006F00075D828688003F7D50CE0FFF733FE06466F
:1007000005E000BFFFF72EFE801B6428F0D82868A4
:100710008003F7D42078944E80074FF001094FF002
:1007200000083BD5686810F00C0F07D06868C0F36C
:100730008100022809D16868C00306D428688007B0
:1007400014D5206901281FD110E02069B0B1C6F886
:100750000090FFF707FE074605E000BFFFF702FE27
:10076000C01B0228C4D828688007F7D528686169AB
:1007700020F0F80040EAC10028600FE0C6F80080D1
:10078000FFF7F0FD074606E0E9E000BFFFF7EAFDEE
:10079000C01B022823D828688007F7D420780007D8
:1007A0002CD57248A169D9B1C0F80090FFF7DAFDE5
:1007B000074604E0FFF7D6FDC01B02280FD8686A81
:1007C0008007F7D56A484FF4FA510068B0FBF1F0A2
:1007D000009000BF0098411E0091FAD20EE080E028
:1007E000C0F80080FFF7BEFD074604E0FFF7BAFD42
:1007F000C01B022875D8686A8007F7D420784007A4
:1008000060D5E8690027C00008D4E86940F080504E
:10081000E861E869012700F08050009055480168C0
:10082000C90513D40168834641F480710160FFF764
:1008300099FD824606E000BFFFF794FDA0EB0A0099
:1008400064284ED8DBF80000C005F5D5E068012823
:100850000AD008B1052813D0286A20F001002862C8
:10086000286A20F0040002E0286A40F001002862B3
:10087000E06841F2883B98B1FFF774FD82460BE0D7
:10088000286A40F004002862EEE700BFFFF76AFD27
:10089000A0EB0A0159455AD8286A8007F6D50CE022
:1008A000FFF760FD824605E0FFF75CFDA0EB0A0163
:1008B00059454CD8286A8007F6D41FB1E86920F062
:1008C0008050E861E06988B36968C1F38101022959
:1008D00045D00228C6F8608004D0FFF743FD0446E7
:1008E00038E034E0FFF73EFD074604E0FFF73AFD4D
:1008F000C01B02282BD828688001F7D4206AB0F5E5
:10090000803F05D16868A16820F400300843686022
:10091000D4E908010843696821F474110843686048
:10092000C6F86090FFF71EFD044606E015E000BF24
:10093000FFF718FD001B022809D828688001F7D5A9
:100940000BE000BFFFF70EFD001B022802D90320B9
:10095000BDE8F88F28688001F4D40020F8E7012072
:10096000F6E70000001002400000424280044242CC
:10097000140000200070004010B5401EB0F1807FD0
:1009800001D3012010BD4FF0E02460610F216017FA
:1009900000F024FA0020A06107202061002010BD93
:1009A0007047704730B590F83C20012A20D00122D2
:1009B00080F83C20022380F83D3003685C6824F016
:1009C00070045C6003685C680D682C435C600368BD
:1009D0009C6824F080049C6003689C6849680C4310
:1009E0009C6080F83D20002180F83C10084630BD16
:1009F000022030BD10B5040003D094F83D0010B1C2
:100A000007E0012010BD002084F83C00204600F0E3
:100A10000DF8022084F83D00211D206800F062FAE4
:100A2000012084F83D00002010BD000008B50068DA
:100A3000B0F1804F12D10A48C16941F00101C16192
:100A4000C069002200F00100009011461C20FFF751
:100A5000F3FCBDE808401C20FFF7E2BC08BD000025
:100A6000001002400168CA6842F00102CA600068D2
:100A7000016841F0010101600020704770B5044633
:100A800090F83C00012817D0012584F83C50022042
:100A900084F83D002068826822F0770222F47F42C9
:100AA00082600868502837D00DDC202859D005DC3A
:100AB00088B3102841D151E0022070BD302853D0B6
:100AC00040283AD13FE060282ED070280BD0B0F5F6
:100AD000805F03D0B0F5005F2FD110E020688168FF
:100AE00021F0070115E0CB68D1E90121206800F071
:100AF0002FFA2168886840F0770088601DE0CB6895
:100B0000D1E90121206800F023FA2068816841F4CE
:100B10008041816011E01EE0CA684968206800F0E9
:100B200029FA5021206806E0CA684968206800F068
:100B300032FA6021206800F015FA84F83D50002058
:100B400084F83C0070BDCA684968206800F012FA59
:100B500040212068EFE700212068ECE710212068A1
:100B6000E9E720212068E6E730212068E3E77047C5
:100B700070B50446006801694FF00005C943890754
:100B800015D4C168C943890711D4E91E0161012048
:100B90002077206880698007204602D0FFF7E7FFB2
:100BA00004E000F098F8204600F096F825772068D9
:100BB0000169C943490717D4C168C943490713D418
:100BC0006FF004010161022020772068806910F431
:100BD000407F204602D0FFF7CAFF04E000F07BF818
:100BE000204600F079F8257720680169C943090794
:100BF00016D4C168C943090712D46FF00801016116
:100C0000042020772068C0698007204602D0FFF7C3
:100C1000AEFF04E000F05FF8204600F05DF82577B5
:100C200020680169C943C90617D4C168C943C90608
:100C300013D46FF010010161082020772068C0698B
:100C400010F4407F204602D0FFF791FF04E000F04F
:100C500042F8204600F040F8257720680169C94332
:100C6000C90708D1C168C943C90704D1891E0161F8
:100C7000204600F032F820680169C943090609D40A
:100C8000C168C943090605D46FF08001016120469F
:100C9000FFF786FE20680169C943490609D4C16887
:100CA000C943490605D46FF040010161204600F0B8
:100CB00015F820680169C94389060BD4C168C94386
:100CC000890607D46FF0200101612046BDE870401D
:100CD000FFF767BE70BD7047704770477047FEE70B
:100CE000F0B585B000242448009401940294039444
:100CF000816941F010018161816901F01001049165
:100D0000816941F020018161816901F02001049134
:100D1000816941F0040181618069184E00F004008E
:100D20004FF400550490002229463046FFF714FB8B
:100D3000134F0022FC213846FFF70EFB1120CDE9AE
:100D40000050022569463046CDE90245FFF722FAF8
:100D5000032001268DE8510069463846FFF71AFA4C
:100D6000FC20CDE9000669463846CDE90245FFF78B
:100D700011FA05B0F0BD0000001002400010014063
:100D80000008014010B586B0002412480094019478
:100D90000294039404944FF080410594016048F656
:100DA0009F41C0E901140121C0E903148021816140
:100DB000FFF720FE4FF48050009069460548FFF78A
:100DC0005DFE049404A903480594FFF7EBFD06B00B
:100DD00010BD000018000020FEE770470907090E4B
:100DE000002806DA00F00F0000F1E02080F8141D62
:100DF000704700F1E02080F800147047704770479A
:100E0000FFF7B6BA30B58FB028216846FFF791F9E1
:100E100014210AA8FFF78DF901210804CDE900107B
:100E20000024029402250491CDE907504FF4E0100C
:100E300009906846FFF71EFC0F20CDE90A056802FD
:100E4000CDE90C4002210AA80E94FFF727FB0FB052
:100E500030BD00000D48016841F0010101604168AA
:100E60000B4A1140416001680A4A11400160016863
:100E700021F480210160416821F4FE0141604FF4BA
:100E80001F0181600449C0030860704700100240E0
:100E90000000FFF8FFFFF6FE08ED00E070B50E4819
:100EA000FFF766FE0D4C6088401C6080608800255E
:100EB000642805D165804FF400510948FFF748FACE
:100EC0002078012802D1A088401EA080A088002898
:100ED00001D12570A58070BD180000200000002001
:100EE00000100140F0B50268164B174C174D4FF03B
:100EF0008047984205D0B84203D0A04201D0A84212
:100F000003D122F070064A683243984205D0B842B5
:100F100003D0A04201D0A84203D122F44074CA6891
:100F2000224322F080044A69224302608A68C26236
:100F30000A688262984201D1096901630121416115
:100F4000F0BD0000002C01400004004000080040FB
:100F500010B5846842EA032224F47F440A43224302
:100F6000826010BD826822F070020A4342F00701DD
:100F70008160704710B5036A046A24F001040462BA
:100F8000846924F0F00444EA021423F00A020A43BC
:100F90008461026210BD10B5036A23F0100303627E
:100FA0008369046A23F4704343EA023224F0A00305
:100FB00043EA01118261016210BDFEE702E008C848
:100FC000121F08C1002AFAD170477047002001E0C3
:100FD00001C1121F002AFBD17047000010B500F0BC
:100FE000C1F8084C012280212046FFF7B5F9012203
:100FF00010212046FFF7B0F9BDE810404FF4FA6029
:10100000FFF7B6B80008014070B500F0ABF8094D25
:10101000012280212846FFF79FF900240421284659
:10102000FFF796F9C820FFF7A3F8641CE4B20A2C76
:10103000F4D370BD0008014010B500F093F8084CDF
:10104000012204212046FFF787F901228021204652
:10105000FFF782F9BDE8104042F21070FFF788B840
:101060000008014070B500F07DF8094D0122102103
:101070002846FFF771F9002420212846FFF768F978
:10108000C820FFF775F8641CE4B20A2CF4D370BDD5
:101090000008014010B500F065F8084C012220213D
:1010A0002046FFF759F9012210212046FFF754F995
:1010B000BDE8104042F21070FFF75AB80008014036
:1010C000FFF75EF9FFF79EFEFFF70AFEFFF75AFEF5
:1010D0000648FFF7C7FC064D002400BF55F8340052
:1010E000804705EBC4004479F8E7000018000020B1
:1010F0000412000810B500F035F80B4C01228021D5
:101100002046FFF729F9012210212046FFF724F994
:10111000012208212046FFF71FF9BDE8104040F6E4
:10112000B830FFF725B800000008014010B500F006
:1011300019F80B4C012210212046FFF70DF901226E
:1011400080212046FFF708F9012240212046FFF7C1
:1011500003F9BDE8104040F6B830FFF709B80000C9
:101160000008014010B5104C002204212046FFF772
:10117000F3F8002208212046FFF7EEF800221021A4
:101180002046FFF7E9F8002220212046FFF7E4F887
:10119000002240212046FFF7DFF820460022BDE86C
:1011A00010408021FFF7D8B80008014010B5FFF7C4
:1011B000D9FF084C012208212046FFF7CDF8012273
:1011C00080212046FFF7C8F8BDE8104040F6B8304F
:1011D000FEF7CEBF0008014010B5FFF7C3FF084C73
:1011E000012240212046FFF7B7F8012210212046B6
:1011F000FFF7B2F8BDE8104040F6B830FEF7B8BFD0
:10120000000801409510000800010000651000086A
:1012100001020000D911000802030000DD0F0008E0
:1012200003040000F5100008040500003910000850
:10123000050600000910000806070000AD110008AF
:1012400007080000DD0F0008080900002D11000844
:10125000090000000000000000000000010203047B
:10126000060708098412000800000020180000008A
:10127000BC0F00089C120008180000204004000069
:10128000CC0F000800000000E8030000010000008F
:0C129000100000000000000000A24A0452
:04000005080000ED02
:00000001FF
